:100000000C9463000C948B000C948B000C94600D8A
:100010000C94600D0C94600D0C948B000C948B0070
:100020000C948B000C948B000C948B000C948B0024
:100030000C948B000C948B000C948B000C948B0014
:100040000C94F70B0C948B000C94C50B0C949F0B29
:100050000C948B000C948B000C948B000C948B00F4
:100060000C94410C0C948B0000000000240027002D
:100070002A0000000008000201000003040700003D
:1000800000000000000000000000230026002900FE
:1000900000000000250028002B00040404040404D0
:1000A0000404020202020202030303030303010227
:1000B00004081020408001020408102001020408F6
:1000C0001020D80DCD1311241FBECFEFD8E0DEBF16
:1000D000CDBF25E0A6EFB2E001C01D92A031B2076E
:1000E000E1F712E0A0E0B1E0E4E3F2E302C0059042
:1000F0000D92A63FB107D9F710E0C2E6D0E004C0E8
:100100002197FE010E94F216C136D107C9F70E945D
:10011000EB0E0C940D190C9400000895DB0114965D
:100120004D915C9115976D917C91DC01ED91FC9165
:100130000280F381E02D0994AF92BF92CF92DF92BB
:10014000EF92FF920F931F93CF93DF936C017B018C
:100150008B01040F151FEB015E01AE18BF08C0171D
:10016000D10759F06991D601ED91FC910190F08190
:10017000E02DC6010995892B79F7C501DF91CF9153
:100180001F910F91FF90EF90DF90CF90BF90AF90B5
:10019000089508950895FC01538D448D252F30E076
:1001A000842F90E0821B930B541710F0CF96089584
:1001B00001970895FC01918D828D981761F0A28DB1
:1001C000AE0FBF2FB11D5D968C91928D9F5F9F7377
:1001D000928F90E008958FEF9FEF0895FC01918D2D
:1001E000828D981731F0828DE80FF11D858D90E09A
:1001F00008958FEF9FEF0895FC01918D228D892F37
:1002000090E0805C9F4F821B91098F73992708951E
:1002100086E094E00E94FC0021E0892B09F420E0B4
:10022000822F089580E090E0892B29F00E94080138
:1002300081110C9400000895FC01A48DA80FB92F22
:10024000B11DA35ABF4F2C91848D90E001968F73FE
:100250009927848FA689B7892C93A089B1898C911D
:10026000837080648C93938D848D981306C002886C
:10027000F389E02D80818F7D80830895EF92FF9236
:100280000F931F93CF93DF93EC0181E0888F9B8DB9
:100290008C8D98131AC0E889F989808185FF15C073
:1002A0009FB7F894EE89FF896083E889F989808196
:1002B0008370806480839FBF81E090E0DF91CF9165
:1002C0001F910F91FF90EF900895F62E0B8D10E087
:1002D0000F5F1F4F0F731127E02E8C8D8E110CC0F6
:1002E0000FB607FCFACFE889F989808185FFF5CF41
:1002F000CE010E941C01F1CFEB8DEC0FFD2FF11D03
:10030000E35AFF4FF0829FB7F8940B8FEA89FB897D
:1003100080818062CFCFCF93DF93EC01888D8823DB
:10032000B9F0AA89BB89E889F9898C9185FD03C058
:10033000808186FD0DC00FB607FCF7CF8C9185FF3D
:10034000F2CF808185FFEDCFCE010E941C01E9CF65
:10035000DF91CF910895833081F028F4813099F0B6
:100360008230A9F008958730A9F08830C9F0843030
:10037000B1F4809180008F7D03C0809180008F77E1
:1003800080938000089584B58F7784BD089584B5E7
:100390008F7DFBCF8091B0008F778093B000089560
:1003A0008091B0008F7DF9CFCF93DF93282F30E07D
:1003B000F901EE58FF4F8491F901E255FF4FD491B6
:1003C000F901E656FF4FC491CC23A1F081110E94A0
:1003D000AB01EC2FF0E0EE0FFF1FEA57FF4FA591A6
:1003E000B491EC91ED2381E090E009F480E0DF919D
:1003F000CF91089580E090E0FACF1F93CF93DF93E1
:10040000282F30E0F901EE58FF4F8491F901E255B1
:10041000FF4FD491F901E656FF4FC491CC23A9F0C8
:10042000162F81110E94AB01EC2FF0E0EE0FFF1FA1
:10043000E057FF4FA591B4918FB7F894EC9111114B
:1004400008C0D095DE23DC938FBFDF91CF911F9141
:100450000895DE2BF8CFCF93DF9390E0FC01E255B7
:10046000FF4F249186569F4FFC0184918823C9F049
:1004700090E0880F991FFC01E859FF4FA591B491B6
:10048000FC01E057FF4FC591D49161110DC09FB79A
:10049000F8948C91209582238C938881282328833B
:1004A0009FBFDF91CF910895623051F49FB7F894C8
:1004B0003C91822F809583238C93E8812E2BEFCF64
:1004C0008FB7F894EC912E2B2C938FBFEACF3FB7C8
:1004D000F8948091EF039091F003A091F103B09113
:1004E000F20326B5A89B05C02F3F19F00196A11D68
:1004F000B11D3FBFBA2FA92F982F8827BC01CD016E
:10050000620F711D811D911D42E0660F771F881FCC
:10051000991F4A95D1F708958F929F92AF92BF92FB
:10052000CF92DF92EF92FF926B017C010E946702F3
:100530004B015C01C114D104E104F104B9F00E9443
:100540006702681979098A099B09683E7340810529
:10055000910580F321E0C21AD108E108F10888EE84
:10056000880E83E0981EA11CB11CE4CFFF90EF9091
:10057000DF90CF90BF90AF909F908F9008952FB74E
:10058000F8946091EB037091EC038091ED039091EE
:10059000EE032FBF08950F931F93CF93DF93EC01CA
:1005A0000E94BF02688779878A879B87E881F981E3
:1005B0000284F385E02DCE01099597FF15C00E94B6
:1005C000BF02088519852A853B85601B710B820B4C
:1005D000930B0C811D812E813F816017710782076B
:1005E000930720F38FEF9FEFDF91CF911F910F9132
:1005F00008952091A003260F3327331F21323105A0
:10060000ECF42091C403FC0190E080E0243069F018
:1006100082E00895A091A0032191AC0140585C4F65
:10062000A40FB52FB11D2C930196861798F38091D6
:10063000A003680F6093A00380E0089581E008950F
:100640001092C40381E08093C6031092C50361E059
:1006500082E10E94FD0161E083E10E94FD01E9EB7E
:10066000F0E080818E7F808380818D7F808388E42D
:100670008093B80085E48093BC0008950895E091CC
:10068000FA038091F903E81730F4F0E0E65AFC4FE2
:10069000808190E008958FEF9FEF08959091FA0385
:1006A0008091F9032FEF3FEF981748F4E92FF0E01E
:1006B000E65AFC4F208130E09F5F9093FA03C90116
:1006C00008958091F9039091FA03891B990B08957D
:1006D000CF93DF93CB01EA01642F0E94F902CE0190
:1006E000DF91CF910895CF93DF931F92CDB7DEB7FF
:1006F000698361E0CE0101960E94F90281E090E0F9
:100700000F90DF91CF910895FC0183898B3051F4D4
:1007100080E492E4AFE0B0E0FB0184A395A3A6A33C
:10072000B7A3089580E894E8AEE1B0E0F5CFCF92AA
:10073000DF92EF92FF92CF93DF93DC011796CC917B
:100740001797D0E06111DC2F18962C91189730E0A4
:10075000220F331F2A573F4F50E040E0F9018591A7
:100760009491FC01F080BA0190E080E0EF2DEC2341
:10077000ED1310C04F5F5F4F1D96CD90DD90ED9053
:10078000FC9050976C157D058E059F0538F36FEF33
:100790007FEFCB01DF91CF91FF90EF90DF90CF9073
:1007A00008958F929F92AF92BF92CF92DF92EF9275
:1007B000FF920F931F93CF93DF93CDB7DEB7C05453
:1007C000D1400FB6F894DEBF0FBECDBF8C010E94A2
:1007D000BF02F801C184D284E384F4849B01AC019C
:1007E0002C193D094E095F0969017A0130EDC316E4
:1007F00037E0D306E104F104A8F48189C05CDE4F40
:100800000FB6F894DEBF0FBECDBFDF91CF911F9121
:100810000F91FF90EF90DF90CF90BF90AF909F909F
:100820008F900895618772878387948714821382DB
:1008300012821182108262E085810E942B0261E0A7
:1008400070E080E090E00E948C0261E0F801858118
:100850000E942B0260E0F80185810E94FD01F801F1
:1008600086818551823028F58BE291E10197F1F77D
:1008700062E0F80185810E942B02F801828990E0F4
:100880008230910538F0880F991F880F991F0597BE
:100890000197F1F7F89460E0C8010E9497036F3F59
:1008A0007F4F8F4F9F4F61F4F801118A789480E059
:1008B000A5CF64E170E080E090E00E948C02D8CF88
:1008C00061E0C8010E9497036F3F7F4F8F4F9F4F9A
:1008D00059F39E012F5F3F4F79015E013FEBA31A51
:1008E0003EEFB30A670160E0C8010E949703F6017A
:1008F000608371838283938361E0C8010E949703C0
:10090000F6016483758386839783F8E0CF0ED11C4C
:10091000CA14DB0441F7789430E020E0F7018080CE
:100920009180A280B3804481558166817781FFEFF9
:100930008F169F06AF06BF0631F04F3F8FEF580767
:100940006807780719F4F801118AB1CFF90183E03B
:10095000F595E7958A95E1F7E00FF11F8081880F03
:1009600084169506A606B706F0F080832F5F3F4FEA
:10097000F8E0EF0EF11C2832310581F6F8014481D0
:1009800020818181280F3327331F8281280F311D59
:100990008381820F932F911D99274817190699F685
:1009A00081E0818B2BCF8160E0CF2091FD033091DE
:1009B000FE032817390771F49091FB038091FC0323
:1009C000981741F0E091FB03F0E0E65EFC4F808178
:1009D00090E008958FEF9FEF0895EF92FF920F93AD
:1009E0001F93CF93DF93DC015C96ED90FC905D97B5
:1009F000E114F10479F481E090E013969C938E93D6
:100A0000129790E080E0DF91CF911F910F91FF90BE
:100A1000EF9008955196ED91FC91529750968C91DC
:100A20005097982F90950FB75E962C915E97122F46
:100A3000127021FD6095F8942081112319F1282B63
:100A40002083E7012197F1F728E0462F50E030811D
:100A500060FF1AC0382B3083E7012197F1F7BA0104
:100A600075956795215089F7112381F0808189233D
:100A700080830FBF5C968D919C910197F1F781E087
:100A800090E0C1CF2923DCCF3923E5CF9081892B9A
:100A9000EFCF2091FD033091FE032817390771F441
:100AA0008091FC032091FB0390E0805C9F4F821BB0
:100AB000910960E470E00E94A816089590E080E03B
:100AC00008952091FD033091FE0328173907B9F4EA
:100AD0009091FB038091FC03981789F0E091FB0350
:100AE000F0E0E65EFC4F80812091FB0330E02F5F59
:100AF0003F4F2F7333272093FB0390E008958FEF30
:100B00009FEF089590E080E0089508950895FB0117
:100B100001900020E9F73197AF01461B570BDC012C
:100B2000ED91FC910280F381E02D09948F929F92C8
:100B3000AF92BF92EF92FF920F931F93CF93DF93E9
:100B4000CDB7DEB7A1970FB6F894DEBF0FBECDBF0D
:100B50007C01FA01CB0119A2223008F42AE08E01AF
:100B60000F5D1F4F822E912CB12CA12CBF01A5012E
:100B700094010E94BC16F901CA016A300CF5605D4F
:100B8000D8016E938D01232B242B252B79F790E030
:100B900080E0109721F0BD01C7010E948705A19652
:100BA0000FB6F894DEBF0FBECDBFDF91CF911F917E
:100BB0000F91FF90EF90BF90AF909F908F9008950E
:100BC000695CDECFCF93DF93BC0186E094E00E94A6
:100BD0008705EC016CE571E086E094E00E948705F2
:100BE0008C0F9D1FDF91CF910895CF92DF92EF92EE
:100BF000FF92CF93DF936B017C01F7FE23C06DE280
:100C000086E094E00E943E01EC0144275527BA019A
:100C10004C195D096E097F092AE086E094E00E9484
:100C20009605C80FD91F6CE571E086E094E00E943C
:100C300087058C0F9D1FDF91CF91FF90EF90DF9084
:100C4000CF9008952AE0BC01A60186E094E00E94BE
:100C50009605EC01E8CF2F923F924F925F926F92F0
:100C60007F928F929F92AF92BF92CF92DF92EF923C
:100C7000FF921F93CF93DF93EC016A017B01722EE9
:100C8000AB019601CB01B6010E94A3166FE571E09E
:100C9000811126C046015701E894B7F82FEF3FEFC6
:100CA0004FE75FE7C501B4010E94A31681110CC094
:100CB0002FEF3FEF4FE75FE7C501B4010E94351406
:100CC00063E671E0181664F02FEF3FEF4FE75FE443
:100CD000C701B6010E949E161816B4F467E671E0CB
:100CE000CE01DF91CF911F91FF90EF90DF90CF90D9
:100CF000BF90AF909F908F907F906F905F904F903C
:100D00003F902F900C9487052FEF3FEF4FE75FEC5C
:100D1000C701B6010E94351487FDE0CF20E030E026
:100D2000A901C701B6010E943514312C212C87FF7F
:100D30000DC0E881F9810190F081E02D6DE2CE01D6
:100D400009951C01F7FAF094F7F8F09410E060E0D0
:100D500070E080E09FE3711641F020E030E040E277
:100D600051E40E94FD151F5FF6CFA70196010E9476
:100D700091152B013C010E946F164B015C012AE08A
:100D8000BC01A401CE010E9496057C01E20CF31C7B
:100D90001123E1F1C501B4010E943A149B01AC0199
:100DA000C301B2010E9490154B015C01E881F981F9
:100DB0000190F081E02D6EE2CE010995E80EF91E5A
:100DC000115020F120E030E040E251E4C501B401CF
:100DD0000E949B142B013C010E946F164B01B12C09
:100DE000A12C2AE0B501A401CE010E949605E80ECF
:100DF000F91EC501B4010E943A149B01AC01C30164
:100E0000B2010E9490154B015C01DACFC701DF915E
:100E1000CF911F91FF90EF90DF90CF90BF90AF9058
:100E20009F908F907F906F905F904F903F902F900A
:100E300008950C9487050F931F93CF93DF938C0134
:100E4000EB01FC01808191810097E1F0688179815B
:100E500061157105A9F0428153812C813D814217B2
:100E6000530770F00E94F7188C819D81F8019583DB
:100E700084831D821C82DF91CF911F910F91089571
:100E80000E94941788819981F801918380838A81D7
:100E90009B81938382838C819D8195838483198236
:100EA00018821B821A82E5CFCF93DF93EC018881F1
:100EB0009981009711F00E949417198218821D825F
:100EC0001C821B821A82DF91CF910895FC018081E0
:100ED0009181009711F00C94941708950C94941735
:100EE0000C9494170F931F93CF93DF93EC01888199
:100EF0009981009759F02A813B812617370730F0F6
:100F000081E0DF91CF911F910F9108958B016F5F69
:100F10007F4F0E941D18009759F0998388831B8387
:100F20000A832C813D81232B59F7FC011082E8CFE5
:100F300080E0E7CFEF92FF920F931F93CF93DF9361
:100F40008C017B01EB0109900020E9F72197C61B7A
:100F5000D70BBE010E947207811109C0C801DF9141
:100F6000CF911F910F91FF90EF900C945407F801CF
:100F7000D583C483B70180819181DF91CF911F9187
:100F80000F91FF90EF900C94F718CF93DF93EC0143
:100F9000198218821B821A821D821C8270E060E016
:100FA0000E947207811105C0CE01DF91CF910C9490
:100FB00054071D821C826EE571E088819981DF9162
:100FC000CF910C94F718CF92DF92EF92FF920F938C
:100FD0001F93CF93DF936C017B018A01461757075C
:100FE00020F48F2D7A01062F182FC6010E94C50705
:100FF000C091EB04D091EC04EC16FD06F8F40C174C
:101000001D0708F4E801E091E704F091E804EC0F13
:10101000FD1F108110826091E7047091E8046E0D4D
:101020007F1DC6016115710599F00E949A07809194
:10103000E7049091E804C80FD91F1883C601DF9117
:10104000CF911F910F91FF90EF90DF90CF90089577
:101050000E945407ECCFCF92DF92EF92FF920F9352
:101060001F93CF93DF9300D0CDB7DEB78C016B0118
:101070000E94C507C6010E94CB0297FD21C08A309D
:101080009105F1F089831A82F801E480F580FFEF81
:10109000EF1AFF0AB701C8010E947207882351F3B3
:1010A000F8012081318184819581BE016F5F7F4F7E
:1010B000820F931F0E94F718F801F582E482DACFBD
:1010C000C8010F900F90DF91CF911F910F91FF906A
:1010D000EF90DF90CF900895CF93DF93EB01FC0169
:1010E00083894BE050E061E771E08C30C1F058F447
:1010F0004BE050E06BE671E08B3089F04BE050E064
:1011000063E871E00CC04BE050E067E771E08531C7
:1011100031F04BE050E06DE771E0863179F7CE01B8
:101120000E94FE181B86DF91CF910895CF93DF9325
:1011300085ED8093BC0080917C0390917D03A0910C
:101140007E03B0917F030796A11DB11D23E0B695E4
:10115000A795979587952A95D1F72091BC0024FDF6
:1011600003C01092C40336C040917C0350917D03AC
:1011700060917E0370917F03452B462B472B69F3CB
:101180000097A105B10541F025E32A95F1F700008C
:101190000197A109B109E1CF80917B0391E0909380
:1011A0007A038823B9F0C091B800D091BA00809139
:1011B000BC008A7B8093BC0060E082E10E94FD015C
:1011C00060E083E10E94FD010E942003D093BA00F9
:1011D000C093B800DF91CF9108950F931F93CF93E1
:1011E000DF938C01EB0188E2DB011D928A95E9F720
:1011F000F801838194810E946C0881E090E0A0E076
:10120000B0E08C879D87AE87BF87F8018581968186
:10121000A781B085888B998BAA8BBB8B8CE090E0E3
:10122000A0E0B0E08C8B9D8BAE8BBF8BBE01838129
:1012300094810E948403D8011396ED91FC918389D7
:101240008C3009F441C078F48B3009F1188E198E76
:101250001A8E1B8E1C8E1D8E1E8E1F8E18A219A21A
:101260001AA21BA22CC08551823080F780E090E04A
:10127000A8ECB2E4888F998FAA8FBB8F1C8E1D8E2D
:101280001E8E1F8E8DEC9CECACECBDE314C080E098
:1012900090E0A0EAB2E4888F998FAA8FBB8F80E09C
:1012A00090E0A0EAB1E48C8F9D8FAE8FBF8F80E07D
:1012B00090E0A0EAB0E488A399A3AAA3BBA3DF911E
:1012C000CF911F910F91089580E090E0AEEBB2E4D2
:1012D000E2CFCF92DF92EF92FF920F931F93CF93C3
:1012E000DF938C01EB01FB01349680E2DF011D925C
:1012F0008A95E9F784E290E0A0E0B0E088839983E2
:10130000AA83BB83F80185819681A781B0858C83F0
:101310009D83AE83BF838CE090E0A0E0B0E088873F
:101320009987AA87BB870E94BF02688B798B8A8BBB
:101330009B8BD80113960D911C91C8010E94D1037B
:10134000882349F0F80186818B3028F08D3040F0F9
:101350008551823070F160E070E080EC9FE71BC047
:10136000618170E090E080E00E943C142DEC3CEC48
:101370004CEC5DE30E949B146B017C01F8016081E1
:1013800070E090E080E00E943C149B01AC01C7013A
:10139000B6010E9491156C8B7D8B8E8B9F8B81E0AB
:1013A000DF91CF911F910F91FF90EF90DF90CF9041
:1013B00008956081718176276727762790E080E025
:1013C0000E943A142DEC3CEC4CEC5DE30E949B1423
:1013D000E2CF0F931F93CF93DF938C01EB0188E251
:1013E000DB011D928A95E9F7F801838194810E94BF
:1013F0006C0881E090E0A0E0B0E08C879D87AE872C
:10140000BF87F80185819681A781B085888B998BEC
:10141000AA8BBB8B8DE090E0A0E0B0E08C8B9D8B25
:10142000AE8BBF8BBE01838194810E948403D8015F
:101430001396ED91FC9183898C3091F178F48B3087
:10144000B1F0188E198E1A8E1B8E1C8E1D8E1E8E5C
:101450001F8E18A219A21AA21BA21DC08531A9F1C4
:10146000863179F780E090E0AAEFB2E432C080E004
:1014700090E0A8E4B2E4888F998FAA8FBB8F1C8E6E
:101480001D8E1E8E1F8E80E090E0A0E0B0E488A349
:1014900099A3AAA3BBA3DF91CF911F910F910895A8
:1014A00080E090E0A0E7B2E4888F998FAA8FBB8F8D
:1014B00080E090E0A0EAB1EC8C8F9D8FAE8FBF8F63
:1014C00080E090E0A0E0BFE3E2CF80E090E0A0EA1F
:1014D000B2E4888F998FAA8FBB8F80E090E0A0E262
:1014E000B2EC8C8F9D8FAE8FBF8F8DEC9CECACECF3
:1014F000BDE3CDCF8F929F92AF92BF92EF92FF92BA
:101500001F93CF93DF937C01EB01FB01349680E2C4
:10151000DF011D928A95E9F784E290E0A0E0B0E057
:1015200088839983AA83BB83F70185819681A781EC
:10153000B0858C839D83AE83BF838DE090E0A0E077
:10154000B0E088879987AA87BB870E94BF02688B13
:10155000798B8A8B9B8BD7011396ED90FC90C701FA
:101560000E94D103882341F0F70186818C3009F471
:1015700055C038F48B30E1F060E070E080EC9FE71C
:101580003EC085518230C0F71281612F70E0762F06
:10159000662766277F778381682B90E080E00E9432
:1015A0003A142DEC3CEC4CEC5DE30E949B1451C0D2
:1015B000628170E090E080E00E943A144B015C018F
:1015C000F701138117FF0AC0AC019B0160E070E0D6
:1015D00080E89FEB0E9490154B015C011F70612F0A
:1015E00070E090E080E00E943C142DEC3CEC4CEC70
:1015F0005DE30E949B14A50194010E9491156C8BE0
:101600007D8B8E8B9F8B81E0DF91CF911F91FF901F
:10161000EF90BF90AF909F908F9008951281612FAF
:1016200070E090E080E00E943A144B015C01F70109
:1016300063816F7070E090E080E00E943C142DECBC
:101640003CEC4CEC5DE30E949B14A50194010E94CC
:10165000911517FFD4CF9058D2CFEF92FF920F93EE
:101660001F93CF93DF93CDB7DEB729970FB6F894CA
:10167000DEBF0FBECDBF05EB14E0F80186898B837A
:1016800080E491E09A8389838789908D9D838C8300
:10169000818D928DA38DB48D8E839F83A887B9870A
:1016A00066EF72E0CE0101960E947A0A86EFE82E7C
:1016B00082E0F82EF701448955896689778922E00E
:1016C0008DEE94E00E942B0668E871E08DEE94E0C8
:1016D0000E941907F801878D8B8382E391E09A833A
:1016E000898380A191A19D838C8382A193A1A4A1D0
:1016F000B5A18E839F83A887B987B701CE010196D4
:101700000E946909F701448955896689778922E031
:101710008DEE94E00E942B066CE571E08DEE94E076
:101720000E94870529960FB6F894DEBF0FBECDBF85
:10173000DF91CF911F910F91FF90EF9008951F922D
:101740000F920FB60F9211242F933F934F935F93F5
:101750006F937F938F939F93AF93BF93EF93FF9379
:1017600086E094E00E941C01FF91EF91BF91AF9140
:101770009F918F917F916F915F914F913F912F91A9
:101780000F900FBE0F901F9018951F920F920FB6DB
:101790000F9211242F938F939F93EF93FF93E091D8
:1017A0001604F09117048081E0911C04F0911D044F
:1017B00082FD1BC0908180911F048F5F8F732091E9
:1017C0002004821741F0E0911F04F0E0EA5FFB4F34
:1017D000958F80931F04FF91EF919F918F912F918F
:1017E0000F900FBE0F901F9018958081F4CF1F921D
:1017F0000F920FB60F9211242F933F938F939F93C5
:10180000AF93BF938091EB039091EC03A091ED0314
:10181000B091EE033091EA0323E0230F2D3758F502
:101820000196A11DB11D2093EA038093EB039093D1
:10183000EC03A093ED03B093EE038091EF0390913E
:10184000F003A091F103B091F2030196A11DB11D27
:101850008093EF039093F003A093F103B093F2030E
:10186000BF91AF919F918F913F912F910F900FBE9C
:101870000F901F90189526E8230F0296A11DB11D09
:10188000D2CF1F920F920FB60F9211242F933F9336
:101890004F935F936F937F938F939F93AF93BF9378
:1018A000EF93FF938091B900887F803609F44AC096
:1018B000F0F5883209F4A7C018F5803109F49BC00F
:1018C000B8F4882309F4F9C0883009F494C0FF9172
:1018D000EF91BF91AF919F918F917F916F915F91A8
:1018E0004F913F912F910F900FBE0F901F90189521
:1018F000883109F488C0803251F78093C30314C043
:10190000803409F49DC040F48033B9F38833F9F68C
:101910008093C30385ECB0C0803509F485C0883559
:1019200009F496C0883499F60E949608D0CF883979
:1019300009F48CC038F5883729F050F4883611F056
:10194000803729F683E08093C4031092C20357C006
:10195000883809F47BC0803919F0803809F0B7CF96
:101960008091C203803208F071C0E091C20381E02F
:101970008E0F8093C2038091BB00F0E0EE55FC4FC8
:1019800080833DC0803B39F0E0F4803A09F479C0AF
:10199000883A09F09CCF84E08093C4031092A1039D
:1019A0001092A003E091F503F091F6030995809160
:1019B000A00381110FC081E08093A00310928003E7
:1019C00009C0803C09F4A6CF883C09F4A3CF883B2A
:1019D00009F07DCFE091A10381E08E0F8093A103F8
:1019E000F0E0E058FC4F80818093BB009091A10310
:1019F0008091A00329C08091E9038093BB0085EC0E
:101A00008093BC0064CF9091E8038091E70398171E
:101A100058F5E091E80381E08E0F8093E803F0E051
:101A2000E953FC4F8081E9CFE091E80381E08E0F1C
:101A30008093E8038091BB00F0E0E953FC4F808382
:101A40009091E8038091E7039817C8F285E8D8CF12
:101A5000E091E80381E08E0F8093E8038091BB0062
:101A6000F0E0E953FC4F80838091C60381115CCF85
:101A700081E08093C50384EA8093BC001092C40384
:101A800026CF85EC8093BC001092C4038091C203E2
:101A9000803230F4E091C203F0E0EE55FC4F10824A
:101AA0006091C20370E0E091F303F091F40382EAE5
:101AB00093E009951092C2030ACF1092C30334CF6A
:101AC0001F920F920FB60F9211242F933F934F93B3
:101AD0005F936F937F938F939F93AF93BF93EF9396
:101AE000FF93E091FD03F091FE03309749F0A68546
:101AF000B7858585968D91FF14C09C918923A1F4AB
:101B0000FF91EF91BF91AF919F918F917F916F91D5
:101B10005F914F913F912F910F900FBE0F901F90AB
:101B200018959C91892361F7A389B4899C91858933
:101B3000809589238C93868997890197F1F7608D29
:101B4000718DA685B785558538E020E0CB010197DA
:101B5000F1F7822F90E095958795282F4C9145239A
:101B600009F02068315091F7868D81FD2095809194
:101B7000FC0390E001968F7399273091FB0338178F
:101B800099F0A091FC03B0E0A65EBC4F2C9380932B
:101B9000FC03828D938D0197F1F7A389B4898C9111
:101BA0009589892B8C93ACCF868D8160868FF1CF00
:101BB000109209041092080488EE93E0A0E0B0E0CF
:101BC00080930A0490930B04A0930C04B0930D042B
:101BD0002EE031E0309307042093060425EC30E03A
:101BE000309313042093120424EC30E03093150456
:101BF0002093140420EC30E0309317042093160453
:101C000021EC30E0309319042093180422EC30E0EA
:101C100030931B0420931A0426EC30E030931D040B
:101C200020931C0410921F0410922004109221048F
:101C3000109222041092A6041092A5048093A70487
:101C40009093A804A093A904B093AA0420E231E0E1
:101C50003093A4042093A3041092F0041092EF0494
:101C60008093F1049093F204A093F304B093F404EE
:101C70008EE491E09093EE048093ED0410920405BD
:101C800010920305109206051092050510920805A2
:101C90001092070510920A051092090560910B0534
:101CA0006E7F6D7F60930B056695617081E068279C
:101CB00086E00E94FD0161E086E00E942B02E4EBD9
:101CC000F0E0E491E093FD04E0EAF0E0E491F0E07C
:101CD000EE0FFF1FE057FF4F859194919093FF0403
:101CE0008093FE0460E087E00E942B0280910B0548
:101CF00081FD04C061E087E00E94FD0187E08093E0
:101D0000F904E5EBF0E0E491E093FA04E1EAF0E0B5
:101D1000E491F0E0EE0FFF1FEA57FF4F8591949199
:101D20009093FC048093FB0487EE94E00E94C50727
:101D300081EE94E00E94C5078BED94E00E94C507F8
:101D400025EB34E088E08093BA048BE08093BB04F9
:101D5000E6EBF0E0E491E093BC04E2EAF0E0E49129
:101D6000E093BD0440E85EE360E070E04093C204AD
:101D70005093C3046093C4047093C5048093C80453
:101D800080E491E09093CA048093C9043093CD0419
:101D90002093CC048FEF9FEFDC018093CE049093CF
:101DA000CF04A093D004B093D10442E351E0509308
:101DB000D3044093D2043093D6042093D504809367
:101DC000D7049093D804A093D904B093DA048FEA8F
:101DD00094E00C94C507CF93DF93CDB7DEB7E297BD
:101DE0000FB6F894DEBF0FBECDBF789484B5826085
:101DF00084BD84B5816084BD85B5826085BD85B5AF
:101E0000816085BD80916E00816080936E0010922C
:101E100081008091810082608093810080918100A7
:101E20008160809381008091800081608093800038
:101E30008091B10084608093B1008091B000816096
:101E40008093B00080917A00846080937A008091C2
:101E50007A00826080937A0080917A00816080931A
:101E60007A0080917A00806880937A001092C10095
:101E70001092FA031092F9031092F8031092F703EC
:101E80000E94200389EC90E09093F6038093F50381
:101E90008AEC90E09093F4038093F30362E08091E6
:101EA000BA040E942B020E94BF02605D7740810944
:101EB00091096093BE047093BF048093C004909313
:101EC000C10487E38093C704E0911604F0911704DE
:101ED00082E08083E0911204F09113041082E0917B
:101EE0001404F09115048FEC808310921E04E0918D
:101EF0001A04F0911B0486E08083E0911804F091AD
:101F00001904808180618083E0911804F0911904A4
:101F1000808188608083E0911804F09119048081A9
:101F200080688083E0911804F091190480818F7D8E
:101F300080831092080510920705109206051092F2
:101F4000050510920405109203058DE991E0909328
:101F50000A05809309059091F904963108F047C06D
:101F60002DEB30E030930405209303052BE931E09D
:101F700030930605209305052CE231E030930805E7
:101F8000209307052091680084E0983048F031E004
:101F90009E3008F430E081E001C0880F3A95EAF7FE
:101FA000822B809368002DE630E0983050F02BE6CD
:101FB00030E09E3030F02CE630E0963110F030E02A
:101FC00020E03093010520930005292F30E0983060
:101FD00008F03FC281E001C0880F9A95EAF780932C
:101FE00002058091090590910A050197F1F780910A
:101FF000070590910805892B49F1E091FD03F091C7
:10200000FE0384E0ED3EF80709F1309739F0A3892B
:10201000B4899C918589809589238C9380910B0547
:102020008E7F80930B051092FC031092FB038DEEC4
:1020300094E09093FE038093FD03E0910005F091FE
:102040000105808190910205892B80838091CB04CA
:102050008BA780E491E09AA789A78091CC04909106
:10206000CD049DA78CA78091CE049091CF04A09120
:10207000D004B091D1048EA79FA7A8ABB9ABBE0185
:102080006F5F7F4FCE0189960E94E9098AE891E04F
:102090000E94E20587EA91E00E94E2058AE891E069
:1020A0000E94E2056BEB71E086E094E00E94190764
:1020B000CE0101960E94E2056AEC71E086E094E0B0
:1020C0000E9419076D857E858F8598890E94F50588
:1020D00069ED71E086E094E00E94190769897A89C8
:1020E0008B899C890E94F50568EE71E086E094E09A
:1020F0000E941907498D5A8D6B8D7C8D22E086E0F8
:1021000094E00E942B0687E092E00E94E20567EFD0
:1021100071E086E094E00E9419074D8D5E8D6F8D11
:1021200078A122E086E094E00E942B0686E092E00F
:102130000E94E2056DE072E086E094E00E941907DB
:1021400049A15AA16BA17CA122E086E094E00E9403
:102150002B0686E092E00E94E2058AE891E00E9468
:10216000E2056CE571E086E094E00E9487058091CD
:10217000D4048BA782E391E09AA789A78091D50424
:102180009091D6049DA78CA78091D7049091D804F4
:10219000A091D904B091DA048EA79FA7A8ABB9ABE0
:1021A000BE016F5F7F4FCE0189960E94ED088AE8DD
:1021B00091E00E94E2058CE192E00E94E2058AE84B
:1021C00091E00E94E2056BEB71E086E094E00E94F2
:1021D0001907CE0101960E94E2056AEC71E086E0E3
:1021E00094E00E9419076D857E858F8598890E94ED
:1021F000F50569ED71E086E094E00E9419076989B0
:102200007A898B899C890E94F50568EE71E086E0E9
:1022100094E00E941907498D5A8D6B8D7C8D22E0C8
:1022200086E094E00E942B0681E392E00E94E205A2
:1022300067EF71E086E094E00E9419074D8D5E8D96
:102240006F8D78A122E086E094E00E942B0681E366
:1022500092E00E94E2056DE072E086E094E00E9468
:10226000190749A15AA16BA17CA122E086E094E064
:102270000E942B0680E392E00E94E2058AE891E04A
:102280000E94E20560E08CE00E942B0260E08DE09D
:102290000E942B0260E082E00E942B0260E083E05B
:1022A0000E942B0260E084E00E942B0260E085E047
:1022B0000E942B0261E08EE00E942B0261E08FE021
:1022C0000E942B0261E080E10E942B0261E081E12B
:1022D0000E942B0280E0282E80E0382E93E1492EC8
:1022E000512C27E0622E712C8091040490910504FA
:1022F0002091000130910101821793070CF0D2C0A8
:102300002091020130910301821793070CF4CAC097
:102310008CE00E94D4014C0181E08114910409F405
:1023200080E0809303048DE00E94D4015C0181E091
:10233000A114B10409F480E08093020482E00E94B9
:10234000D4016C0181E0C114D10409F480E08093D0
:10235000010483E00E94D4017C0181E0E114F104D6
:1023600009F480E08093000484E00E94D4018C0191
:1023700081E00115110509F480E08093FF0385E0F9
:102380000E94D401892859F4AB2849F4CD2839F4A6
:10239000EF2829F4012B19F4892B09F467C061E0B7
:1023A0008FE00E94FD0160E08EE00E94FD0165E388
:1023B00072E08FEA94E00E949A076FEA74E08DEE73
:1023C00094E00E948E0068E871E08DEE94E00E9437
:1023D00019070E942D0B03E010E061E080E10E94EC
:1023E000FD0161E081E10E94FD016CE271E080E0AD
:1023F00090E00E948C0260E080E10E94FD0160E0BC
:1024000081E10E94FD016CE271E080E090E00E94B9
:102410008C020150110909F78DEE94E00E944905E4
:10242000892B09F446C06DEE74E0CE0101960E943E
:102430002B08BE016F5F7F4F87EE94E00E941B0761
:10244000CE0101960E94660765E070E080E090E0B2
:102450002DC09E3040F42850310981E001C0880F22
:102460002A95EAF7BCCD2E503109F7CF60E08FE016
:102470000E94FD0161E08EE00E94FD016DE372E0CB
:102480008FEA94E00E949A076FEA74E08DEE94E080
:102490000E948E0068E871E08DEE94E00E941907BA
:1024A0000E942D0B6CED75E080E090E00E948C02A4
:1024B000B3CF86E094E00E94FC00892BC1F066E077
:1024C00074E0CE0101960E942B08BE016F5F7F4F22
:1024D00081EE94E00E941B07CE0101960E946607E0
:1024E00065E070E080E090E00E948C02E2CFE09036
:1024F000EB04F090EC04E114F10409F4C0C0C090C6
:10250000E704D090E804F6018081882309F4B7C07D
:1025100069E270E0C6010E94E3188C010C191D09E4
:10252000892B11F40FEF1FEF0F5F1F4FA80170E011
:1025300060E0CE0101960E94E307BE016F5F7F4F0E
:102540008BED94E00E941B07CE0101960E94660766
:10255000F1E0EF1AF108A701B801CE0189960E94B7
:10256000E3074EE050E06CE070E0CE0101960E947F
:10257000E3071AAA89819A81009709F4B9C00E94D9
:10258000F91370930504609304040DA51EA50115AD
:10259000110591F0E016F10608F4870169A57AA506
:1025A000A801CE01C2960E94FE18E2E3F0E0EC0F13
:1025B000FD1FE00FF11F108262E472E0CE01C296AF
:1025C0000E94EE18892B01F55092030140920201FE
:1025D000709201016092000160E08EE00E94FD01B6
:1025E00060E08FE00E94FD0167E472E08FEA94E012
:1025F0000E949A076BED74E086E094E00E948E00E2
:1026000087E492E00E94E20562E672E0CE01C296A3
:102610000E94EE18892BB1F4809104049091050476
:102620009093030180930201909301018093000134
:102630006BED74E086E094E00E948E0087E692E005
:102640000E94E20562E872E0CE01C2960E94EE1896
:10265000892B09F051C06EE571E087EE94E00E948D
:102660009A076EE571E087EE94E00E949A07CE012A
:1026700001960E946607CE0189960E9466078091A6
:10268000E5049091E604892BC9F0E091E104F09112
:10269000E2048081882391F061EE74E086E094E0AA
:1026A0000E948E0061EE74E08DEE94E00E948E0038
:1026B0006EE571E081EE94E00E949A076FEA74E0A3
:1026C0008DEE94E00E948E0068E871E08DEE94E05B
:1026D0000E9419070E942D0B2114310409F404CE25
:1026E0000E940801882309F4FFCD0E940000FCCD60
:1026F00060E070E0CB0145CF67E872E0CE01C296A2
:102700000E94EE18892B31F46FE872E08FEA94E0B2
:102710000E949A0766E972E0CE01C2960E94EE1806
:10272000892B31F46DE972E08FEA94E00E949A07F8
:1027300065EA72E0CE01C2960E94EE18892B31F450
:1027400062EB72E08FEA94E00E949A076EEB72E00F
:10275000CE01C2960E94EE18892B31F46CEC72E027
:102760008FEA94E00E949A0769ED72E0CE01C2966A
:102770000E94EE18892B31F466EE72E08FEA94E045
:102780000E949A076BED74E086E094E00E948E0050
:10279000CE01C2960E94E20564CF8FEA94E00E94C7
:1027A00066078BED94E00E94660781EE94E00E943C
:1027B000660787EE94E00E9466078EE491E09093AE
:1027C000EE048093ED048091FD039091FE038D5EF5
:1027D000944071F4E0910005F091010590818091A1
:1027E00002058095892380831092FE031092FD03D9
:1027F00008951F93FC0199278827BC01E894119143
:102800001032E9F3193010F01E30C8F31B3251F0CA
:102810001D3249F4689406C00E942014610F711D96
:10282000811D911D119110531A30B0F33EF4909513
:102830008095709561957F4F8F4F9F4F1F910895A1
:10284000592F482F372F262F660F771F881F991F64
:10285000660F771F881F991F620F731F841F951FB4
:10286000660F771F881F991F08950E94771408F438
:1028700081E00895E89409C097FB3EF49095809517
:10288000709561957F4F8F4F9F4F9923A9F0F92F36
:1028900096E9BB279395F695879577956795B795B4
:1028A000F111F8CFFAF4BB0F11F460FF1BC06F5F9A
:1028B0007F4F8F4F9F4F16C0882311F096E911C0AC
:1028C000772321F09EE8872F762F05C0662371F0CD
:1028D00096E8862F70E060E02AF09A95660F771FE1
:1028E000881FDAF7880F9695879597F90895990FBD
:1028F0000008550FAA0BE0E8FEEF16161706E807CA
:10290000F907C0F012161306E407F50798F0621BEA
:10291000730B840B950B39F40A2661F0232B242BBF
:10292000252B21F408950A2609F4A140A6958FEFDE
:10293000811D811D08950E94AE140C941F150E94E4
:10294000111538F00E94181520F0952311F00C9401
:1029500008150C940E1511240C9453150E94301573
:1029600070F3959FC1F3950F50E0551F629FF001E2
:10297000729FBB27F00DB11D639FAA27F00DB11DFB
:10298000AA1F649F6627B00DA11D661F829F222784
:10299000B00DA11D621F739FB00DA11D621F839F0B
:1029A000A00D611D221F749F3327A00D611D231FE1
:1029B000849F600D211D822F762F6A2F11249F572F
:1029C00050409AF0F1F088234AF0EE0FFF1FBB1F32
:1029D000661F771F881F91505040A9F79E3F5105F1
:1029E00080F00C9408150C9453155F3FE4F3983E67
:1029F000D4F3869577956795B795F795E7959F5F9B
:102A0000C1F7FE2B880F911D9695879597F908952C
:102A100097F99F6780E870E060E008959FEF80EC91
:102A2000089500240A941616170618060906089534
:102A300000240A9412161306140605060895092E9A
:102A40000394000C11F4882352F0BB0F40F4BF2B09
:102A500011F460FF04C06F5F7F4F8F4F9F4F089549
:102A600057FD9058440F551F59F05F3F71F047953F
:102A7000880F97FB991F61F09F3F79F08795089524
:102A8000121613061406551FF2CF4695F1DF08C043
:102A9000161617061806991FF1CF86957105610560
:102AA00008940895E894BB2766277727CB0197F908
:102AB00008952F923F924F925F926F927F928F92E2
:102AC0009F92AF92BF92CF92DF92EF92FF920F93BD
:102AD0001F93CF93DF93CDB7DEB7CA1BDB0B0FB6C7
:102AE000F894DEBF0FBECDBF09942A883988488884
:102AF0005F846E847D848C849B84AA84B984C8841A
:102B0000DF80EE80FD800C811B81AA81B981CE0F10
:102B1000D11D0FB6F894DEBF0FBECDBFED010895F5
:102B20005058BB27AA270E94A8150C941F150E9475
:102B3000111538F00E94181520F039F49F3F19F450
:102B400026F40C940E150EF4E095E7FB0C94081592
:102B5000E92F0E94301558F3BA17620773078407EC
:102B6000950720F079F4A6F50C9452150EF4E09533
:102B70000B2EBA2FA02D0B01B90190010C01CA0137
:102B8000A0011124FF27591B99F0593F50F4503EE2
:102B900068F11A16F040A22F232F342F4427585FD4
:102BA000F3CF469537952795A795F0405395C9F7EC
:102BB0007EF41F16BA0B620B730B840BBAF09150A4
:102BC000A1F0FF0FBB1F661F771F881FC2F70EC043
:102BD000BA0F621F731F841F48F487957795679516
:102BE000B795F7959E3F08F0B0CF9395880F08F002
:102BF0009927EE0F9795879508950E9411160C94CA
:102C00001F150E94181558F00E94111540F029F464
:102C10005F3F29F00C94081551110C9453150C9436
:102C20000E150E94301568F39923B1F3552391F3E3
:102C3000951B550BBB27AA2762177307840738F02B
:102C40009F5F5F4F220F331F441FAA1FA9F335D088
:102C50000E2E3AF0E0E832D091505040E695001C3C
:102C6000CAF72BD0FE2F29D0660F771F881FBB1FF6
:102C7000261737074807AB07B0E809F0BB0B802DD4
:102C8000BF01FF2793585F4F3AF09E3F510578F000
:102C90000C9408150C9453155F3FE4F3983ED4F35D
:102CA000869577956795B795F7959F5FC9F7880FD4
:102CB000911D9695879597F90895E1E0660F771F26
:102CC000881FBB1F621773078407BA0720F0621BB7
:102CD000730B840BBA0BEE1F88F7E09508950E94E2
:102CE000381588F09F5798F0B92F9927B751B0F051
:102CF000E1F0660F771F881F991F1AF0BA95C9F780
:102D000014C0B13091F00E945215B1E008950C94B6
:102D10005215672F782F8827B85F39F0B93FCCF369
:102D2000869577956795B395D9F73EF490958095FC
:102D3000709561957F4F8F4F9F4F08950E94771434
:102D400008F48FEF08950E947714880B990B08956B
:102D500097FB072E16F4009407D077FD09D00E9448
:102D6000DE1607FC05D03EF4909581959F4F08959F
:102D7000709561957F4F0895A1E21A2EAA1BBB1B87
:102D8000FD010DC0AA1FBB1FEE1FFF1FA217B30737
:102D9000E407F50720F0A21BB30BE40BF50B661F4D
:102DA000771F881F991F1A9469F760957095809511
:102DB00090959B01AC01BD01CF010895AA1BBB1BDF
:102DC00051E107C0AA1FBB1FA617B70710F0A61B2B
:102DD000B70B881F991F5A95A9F780959095BC014C
:102DE000CD010895EE0FFF1F0590F491E02D099499
:102DF0000F931F93CF93DF938230910510F482E0FD
:102E000090E0E0910E05F0910F0530E020E0B0E099
:102E1000A0E0309799F42115310509F44AC0281B28
:102E2000390B24303105D8F58A819B8161157105F4
:102E300089F1FB0193838283FE0111C0408151819E
:102E40000281138148175907E0F04817590799F490
:102E5000109761F012960C93129713961C9332966A
:102E6000CF01DF91CF911F910F91089500930E052F
:102E700010930F05F4CF2115310551F04217530778
:102E800038F0A901DB019A01BD01DF01F801C1CFD2
:102E9000EF01F9CF90930F0580930E05CDCFFE0182
:102EA000E20FF31F819391932250310939832883D4
:102EB000D7CF20910C0530910D05232B41F42091A3
:102EC00006013091070130930D0520930C052091E8
:102ED0000401309105012115310541F42DB73EB7AC
:102EE0004091080150910901241B350BE0910C051C
:102EF000F0910D05E217F307A0F42E1B3F0B2817E6
:102F0000390778F0AC014E5F5F4F2417350748F062
:102F10004E0F5F1F50930D0540930C0581939193C5
:102F20009FCFF0E0E0E09CCFCF93DF930097E9F0F4
:102F3000FC01329713821282A0910E05B0910F0509
:102F4000ED0130E020E01097A1F420813181820F63
:102F5000931F20910C0530910D052817390709F0B2
:102F600061C0F0930D05E0930C05DF91CF910895BA
:102F7000EA01CE17DF07E8F54A815B819E01411522
:102F80005105B1F7E901FB83EA8349915991C40FD7
:102F9000D51FEC17FD0761F4808191810296840FA3
:102FA000951FE90199838883828193819B838A831A
:102FB000F0E0E0E012968D919C9113970097B9F59F
:102FC0002D913C911197CD010296820F931F209174
:102FD0000C0530910D052817390739F6309751F552
:102FE00010920F0510920E05B0930D05A0930C05DD
:102FF000BCCFD383C28340815181840F951FC817F2
:10300000D90761F44E5F5F4F88819981480F591F3E
:10301000518340838A819B8193838283211531056B
:1030200009F0B0CFF0930F05E0930E059ECFFD01A0
:10303000DC01C0CF13821282D7CFB0E0A0E0E3E280
:10304000F8E10C945B158C01009751F4CB010E94C0
:10305000F8168C01C801CDB7DEB7E0E10C94771506
:10306000FC01E60FF71F9C0122503109E217F3071C
:1030700008F49DC0D901CD91DC911197C617D707EF
:1030800098F0C530D10530F3CE0104978617970725
:1030900008F3C61BD70B2297C193D1936D937C93F2
:1030A000CF010E949417D6CF5B01AC1ABD0A4C0128
:1030B0008C0E9D1EA0910E05B0910F05512C412C38
:1030C000F12CE12C109731F580910C0590910D05B4
:1030D0008815990509F05CC04616570608F058C0D7
:1030E0008091040190910501009741F48DB79EB73E
:1030F0004091080150910901841B950BE817F907CD
:1031000008F055C0F0930D05E0930C05F9017183AB
:103110006083A0CF8D919C91119712966C9012971D
:1031200013967C901397A815B90559F56C0142E0E8
:10313000C40ED11CCA14DB0420F1AC014A195B098E
:10314000DA011296159780F0628273825183408370
:10315000D9016D937C93E114F10471F0D7011396BA
:10316000FC93EE93129776CF22968C0F9D1FF90158
:1031700091838083F301EFCFF0930F05E0930E0569
:1031800069CF4816590608F42C017D01D3019ACF66
:10319000CB010E94F8167C01009749F0AE01B801FE
:1031A0000E94DA18C8010E949417870153CF10E0DB
:1031B00000E050CFFB01DC0102C001900D924150B4
:1031C0005040D8F70895FC018191861721F088239B
:1031D000D9F7992708953197CF010895FB01DC01B4
:1031E0008D91019080190110D9F3990B0895FB017D
:1031F000DC0101900D920020E1F70895FB01DC0154
:103200004150504048F001900D920020C9F701C094
:103210001D9241505040E0F7089510E0C2E6D0E022
:1032200004C0FE010E94F2162196C336D107C9F7E9
:04323000F894FFCF40
:1032340007001300000010058000000000003E019C
:103244009C00CB008B01FC00DA00EE0000000000C3
:103254007303680382053E0361034E033F030000CA
:10326400000085056E0786056909ED080000000069
:103274008505700786057A0AE90900000000ED0457
:103284009C0082053E0349056105D5040D0A006EC4
:10329400616E00696E66006F766600444854313191
:1032A40000444854313200444854323100444854B4
:1032B4003232004448543F002C002D2D2D2D2D2D4D
:1032C4002D2D2D2D2D2D2D2D2D2D2D2D2D2D2D2D2A
:1032D4002D2D2D2D2D2D00EC98A8EB8F84EC84BC86
:1032E400EC849C20ECA095EBB3B40053656E736F33
:1032F400722020202020203A2000447269766572D2
:103304002056657220203A2000556E69717565203B
:1033140049442020203A20004D61782056616C7584
:10332400652020203A20004D696E2056616C756539
:103334002020203A2000202020CB9A43005265739D
:103344006F6C7574696F6E20203A2000EC8AB5EBBF
:103354008F84EC84BCEC849C20ECA095EBB3B4008B
:1033640020202025005761726E696E6700536166E4
:1033740065006370636100EBB0A9EBB294ECA09CB0
:10338400EC96B428EAB8B0EBB3B8EBAAA8EB939CDC
:1033940029006370636D00EBB0A9EBB294ECA09CC0
:1033A400EC96B428EC99B8ECB69CEBAAA8EB939CE9
:1033B400290054696D65006C656468696768004C30
:1033C4004544204F4E006C65646C6F77004C454457
:1033D400204F4646006F70656E6375727461696E46
:1033E4007300ECBBA4ED8ABC204F50454E00636CC7
:1033F4006F73656375727461696E7300ECBBA4EDE1
:103404008ABC20434C4F5345006375727461696EE6
:10341400736175746F00ECBBA4ED8ABCEC9E90EBF9
:063424008F99ED99940060
:00000001FF
